{
  "contractName": "McLottery",
  "abi": [
    {
      "inputs": [],
      "stateMutability": "nonpayable",
      "type": "constructor"
    },
    {
      "inputs": [],
      "name": "manager",
      "outputs": [
        {
          "internalType": "address",
          "name": "",
          "type": "address"
        }
      ],
      "stateMutability": "view",
      "type": "function",
      "constant": true
    },
    {
      "inputs": [
        {
          "internalType": "uint256",
          "name": "",
          "type": "uint256"
        }
      ],
      "name": "players",
      "outputs": [
        {
          "internalType": "address payable",
          "name": "",
          "type": "address"
        }
      ],
      "stateMutability": "view",
      "type": "function",
      "constant": true
    },
    {
      "stateMutability": "payable",
      "type": "receive",
      "payable": true
    },
    {
      "inputs": [],
      "name": "addFunds",
      "outputs": [],
      "stateMutability": "payable",
      "type": "function",
      "payable": true
    },
    {
      "inputs": [],
      "name": "getBalance",
      "outputs": [
        {
          "internalType": "uint256",
          "name": "",
          "type": "uint256"
        }
      ],
      "stateMutability": "view",
      "type": "function",
      "constant": true
    },
    {
      "inputs": [],
      "name": "random",
      "outputs": [
        {
          "internalType": "uint256",
          "name": "",
          "type": "uint256"
        }
      ],
      "stateMutability": "view",
      "type": "function",
      "constant": true
    },
    {
      "inputs": [
        {
          "internalType": "uint8",
          "name": "index",
          "type": "uint8"
        }
      ],
      "name": "getAllFunders",
      "outputs": [
        {
          "internalType": "address payable[]",
          "name": "",
          "type": "address[]"
        }
      ],
      "stateMutability": "view",
      "type": "function",
      "constant": true
    },
    {
      "inputs": [],
      "name": "pickWinner",
      "outputs": [],
      "stateMutability": "nonpayable",
      "type": "function"
    }
  ],
  "bytecode": "0x608060405234801561001057600080fd5b5033600160006101000a81548173ffffffffffffffffffffffffffffffffffffffff021916908373ffffffffffffffffffffffffffffffffffffffff160217905550610973806100616000396000f3fe6080604052600436106100745760003560e01c80635ec01e4d1161004e5780635ec01e4d146100ed578063a26759cb14610118578063a9580af614610122578063f71d96cb1461015f5761007b565b806312065fe014610080578063481c6a75146100ab5780635d495aea146100d65761007b565b3661007b57005b600080fd5b34801561008c57600080fd5b5061009561019c565b6040516100a291906107f6565b60405180910390f35b3480156100b757600080fd5b506100c06101fe565b6040516100cd919061079e565b60405180910390f35b3480156100e257600080fd5b506100eb610224565b005b3480156100f957600080fd5b506101026103f3565b60405161010f91906107f6565b60405180910390f35b61012061042d565b005b34801561012e57600080fd5b506101496004803603810190610144919061066f565b6104a6565b60405161015691906107d4565b60405180910390f35b34801561016b57600080fd5b5061018660048036038101906101819190610646565b610536565b60405161019391906107b9565b60405180910390f35b6000600160009054906101000a900473ffffffffffffffffffffffffffffffffffffffff1673ffffffffffffffffffffffffffffffffffffffff163373ffffffffffffffffffffffffffffffffffffffff16146101f857600080fd5b47905090565b600160009054906101000a900473ffffffffffffffffffffffffffffffffffffffff1681565b600160009054906101000a900473ffffffffffffffffffffffffffffffffffffffff1673ffffffffffffffffffffffffffffffffffffffff163373ffffffffffffffffffffffffffffffffffffffff161461027e57600080fd5b6003600080549050101561029157600080fd5b600061029b6103f3565b9050600080600080549050836102b191906108af565b9050600081815481106102ed577f4e487b7100000000000000000000000000000000000000000000000000000000600052603260045260246000fd5b9060005260206000200160009054906101000a900473ffffffffffffffffffffffffffffffffffffffff1691508173ffffffffffffffffffffffffffffffffffffffff166108fc61033c61019c565b9081150290604051600060405180830381858888f19350505050158015610367573d6000803e3d6000fd5b50600067ffffffffffffffff8111156103a9577f4e487b7100000000000000000000000000000000000000000000000000000000600052604160045260246000fd5b6040519080825280602002602001820160405280156103d75781602001602082028036833780820191505090505b50600090805190602001906103ed929190610575565b50505050565b6000444260008054905060405160200161040f93929190610761565b6040516020818303038152906040528051906020012060001c905090565b67016345785d8a0000341461044157600080fd5b6000339080600181540180825580915050600190039060005260206000200160009091909190916101000a81548173ffffffffffffffffffffffffffffffffffffffff021916908373ffffffffffffffffffffffffffffffffffffffff160217905550565b6060600080548060200260200160405190810160405280929190818152602001828054801561052a57602002820191906000526020600020905b8160009054906101000a900473ffffffffffffffffffffffffffffffffffffffff1673ffffffffffffffffffffffffffffffffffffffff16815260200190600101908083116104e0575b50505050509050919050565b6000818154811061054657600080fd5b906000526020600020016000915054906101000a900473ffffffffffffffffffffffffffffffffffffffff1681565b8280548282559060005260206000209081019282156105ee579160200282015b828111156105ed5782518260006101000a81548173ffffffffffffffffffffffffffffffffffffffff021916908373ffffffffffffffffffffffffffffffffffffffff16021790555091602001919060010190610595565b5b5090506105fb91906105ff565b5090565b5b80821115610618576000816000905550600101610600565b5090565b60008135905061062b8161090f565b92915050565b60008135905061064081610926565b92915050565b60006020828403121561065857600080fd5b60006106668482850161061c565b91505092915050565b60006020828403121561068157600080fd5b600061068f84828501610631565b91505092915050565b60006106a483836106b0565b60208301905092915050565b6106b98161085c565b82525050565b6106c88161085c565b82525050565b6106d78161084a565b82525050565b60006106e882610821565b6106f28185610839565b93506106fd83610811565b8060005b8381101561072e5781516107158882610698565b97506107208361082c565b925050600181019050610701565b5085935050505092915050565b6107448161088e565b82525050565b61075b6107568261088e565b6108a5565b82525050565b600061076d828661074a565b60208201915061077d828561074a565b60208201915061078d828461074a565b602082019150819050949350505050565b60006020820190506107b360008301846106ce565b92915050565b60006020820190506107ce60008301846106bf565b92915050565b600060208201905081810360008301526107ee81846106dd565b905092915050565b600060208201905061080b600083018461073b565b92915050565b6000819050602082019050919050565b600081519050919050565b6000602082019050919050565b600082825260208201905092915050565b60006108558261086e565b9050919050565b60006108678261086e565b9050919050565b600073ffffffffffffffffffffffffffffffffffffffff82169050919050565b6000819050919050565b600060ff82169050919050565b6000819050919050565b60006108ba8261088e565b91506108c58361088e565b9250826108d5576108d46108e0565b5b828206905092915050565b7f4e487b7100000000000000000000000000000000000000000000000000000000600052601260045260246000fd5b6109188161088e565b811461092357600080fd5b50565b61092f81610898565b811461093a57600080fd5b5056fea26469706673582212201575e3ab886b5a4a4e1d75349e9a62ff8a9ad18daa23c92b3a5484c3c8ae0eaa64736f6c63430008040033",
  "immutableReferences": {},
  "source": "// SPDX-License-Identifier: GPL-3.0\r\n\r\npragma solidity >=0.7.0 <0.9.0;\r\n\r\ncontract McLottery{\r\n    address payable[] public players;\r\n    address public manager;\r\n\r\n    constructor(){\r\n        manager = msg.sender;\r\n    }\r\n\r\n    receive() external payable{\r\n    }\r\n\r\n    function addFunds() external payable {\r\n        require(msg.value == 0.1 ether);\r\n        players.push(payable(msg.sender));\r\n    }\r\n\r\n    function getBalance() public view returns(uint){\r\n        require(msg.sender == manager);\r\n        return address(this).balance;\r\n    }\r\n\r\n    function random() public view returns(uint){\r\n        return uint(keccak256(abi.encodePacked(block.difficulty, block.timestamp, players.length)));\r\n    }\r\n\r\n    function getAllFunders(uint8 index) external view returns (address payable[] memory) {\r\n        return players;\r\n    }\r\n\r\n    function pickWinner() public{\r\n        require(msg.sender == manager);\r\n        require(players.length >= 3);\r\n\r\n        uint r = random();\r\n        address payable winner;\r\n\r\n        uint index = r % players.length;\r\n        winner = players[index];\r\n        winner.transfer(getBalance());\r\n        players = new address payable[](0); // resetting the lottery\r\n    }\r\n}",
  "sourcePath": "C:\\Users\\user\\Desktop\\Web3\\lottery\\contracts\\LotteryContract.sol",
  "compiler": {
    "name": "solc",
    "version": "0.8.4+commit.c7e474f2.Emscripten.clang"
  },
  "schemaVersion": "3.4.16",
  "updatedAt": "2023-12-30T04:43:00.994Z",
  "networkType": "ethereum",
  "devdoc": {
    "kind": "dev",
    "methods": {},
    "version": 1
  },
  "userdoc": {
    "kind": "user",
    "methods": {},
    "version": 1
  }
}